{
  "contractName": "DAO",
  "abi": [
    {
      "anonymous": false,
      "inputs": [
        {
          "indexed": true,
          "internalType": "address",
          "name": "member",
          "type": "address"
        },
        {
          "indexed": false,
          "internalType": "uint256",
          "name": "startTime",
          "type": "uint256"
        }
      ],
      "name": "MemberAdded",
      "type": "event"
    },
    {
      "anonymous": false,
      "inputs": [
        {
          "indexed": true,
          "internalType": "address",
          "name": "member",
          "type": "address"
        }
      ],
      "name": "MemberRemoved",
      "type": "event"
    },
    {
      "anonymous": false,
      "inputs": [
        {
          "indexed": false,
          "internalType": "string",
          "name": "description",
          "type": "string"
        }
      ],
      "name": "ProposalCreated",
      "type": "event"
    },
    {
      "anonymous": false,
      "inputs": [
        {
          "indexed": false,
          "internalType": "uint256",
          "name": "proposalIndex",
          "type": "uint256"
        }
      ],
      "name": "ProposalExecuted",
      "type": "event"
    },
    {
      "anonymous": false,
      "inputs": [
        {
          "indexed": true,
          "internalType": "address",
          "name": "member",
          "type": "address"
        },
        {
          "indexed": false,
          "internalType": "uint256",
          "name": "proposalIndex",
          "type": "uint256"
        }
      ],
      "name": "Voted",
      "type": "event"
    },
    {
      "inputs": [
        {
          "internalType": "address",
          "name": "",
          "type": "address"
        }
      ],
      "name": "memberInfo",
      "outputs": [
        {
          "internalType": "uint256",
          "name": "startTime",
          "type": "uint256"
        },
        {
          "internalType": "uint256",
          "name": "tokenBalance",
          "type": "uint256"
        }
      ],
      "stateMutability": "view",
      "type": "function"
    },
    {
      "inputs": [
        {
          "internalType": "uint256",
          "name": "",
          "type": "uint256"
        }
      ],
      "name": "members",
      "outputs": [
        {
          "internalType": "address",
          "name": "",
          "type": "address"
        }
      ],
      "stateMutability": "view",
      "type": "function"
    },
    {
      "inputs": [
        {
          "internalType": "uint256",
          "name": "",
          "type": "uint256"
        }
      ],
      "name": "proposals",
      "outputs": [
        {
          "internalType": "string",
          "name": "description",
          "type": "string"
        },
        {
          "internalType": "uint256",
          "name": "voteCount",
          "type": "uint256"
        },
        {
          "internalType": "bool",
          "name": "executed",
          "type": "bool"
        }
      ],
      "stateMutability": "view",
      "type": "function"
    },
    {
      "inputs": [],
      "name": "totalSupply",
      "outputs": [
        {
          "internalType": "uint256",
          "name": "",
          "type": "uint256"
        }
      ],
      "stateMutability": "view",
      "type": "function"
    },
    {
      "inputs": [
        {
          "internalType": "address",
          "name": "",
          "type": "address"
        },
        {
          "internalType": "uint256",
          "name": "",
          "type": "uint256"
        }
      ],
      "name": "votes",
      "outputs": [
        {
          "internalType": "bool",
          "name": "",
          "type": "bool"
        }
      ],
      "stateMutability": "view",
      "type": "function"
    },
    {
      "inputs": [
        {
          "internalType": "address",
          "name": "_newMember",
          "type": "address"
        }
      ],
      "name": "addMember",
      "outputs": [],
      "stateMutability": "nonpayable",
      "type": "function"
    },
    {
      "inputs": [
        {
          "internalType": "address",
          "name": "_member",
          "type": "address"
        }
      ],
      "name": "removeMember",
      "outputs": [],
      "stateMutability": "nonpayable",
      "type": "function"
    },
    {
      "inputs": [
        {
          "internalType": "string",
          "name": "_description",
          "type": "string"
        }
      ],
      "name": "createProposal",
      "outputs": [],
      "stateMutability": "nonpayable",
      "type": "function"
    },
    {
      "inputs": [
        {
          "internalType": "uint256",
          "name": "_proposalIndex",
          "type": "uint256"
        }
      ],
      "name": "vote",
      "outputs": [],
      "stateMutability": "nonpayable",
      "type": "function"
    },
    {
      "inputs": [
        {
          "internalType": "uint256",
          "name": "_proposalIndex",
          "type": "uint256"
        }
      ],
      "name": "executeProposal",
      "outputs": [],
      "stateMutability": "nonpayable",
      "type": "function"
    }
  ],
  "bytecode": "0x608060405234801561000f575f80fd5b506118458061001d5f395ff3fe608060405234801561000f575f80fd5b506004361061009c575f3560e01c806349c2a1a61161006457806349c2a1a6146101445780635daf08ca146101605780639f2524ee14610190578063a313c371146101c0578063ca6d56dc146101f15761009c565b80630121b93f146100a0578063013cf08b146100bc5780630b1ca49a146100ee5780630d61b5191461010a57806318160ddd14610126575b5f80fd5b6100ba60048036038101906100b59190610cc6565b61020d565b005b6100d660048036038101906100d19190610cc6565b6103e1565b6040516100e593929190610da4565b60405180910390f35b61010860048036038101906101039190610e3a565b6104a8565b005b610124600480360381019061011f9190610cc6565b6105a3565b005b61012e61070c565b60405161013b9190610e65565b60405180910390f35b61015e60048036038101906101599190610faa565b610712565b005b61017a60048036038101906101759190610cc6565b6107d0565b6040516101879190611000565b60405180910390f35b6101aa60048036038101906101a59190611019565b61080a565b6040516101b79190611057565b60405180910390f35b6101da60048036038101906101d59190610e3a565b610834565b6040516101e8929190611070565b60405180910390f35b61020b60048036038101906102069190610e3a565b610854565b005b610216336109d0565b610255576040517f08c379a000000000000000000000000000000000000000000000000000000000815260040161024c906110e1565b60405180910390fd5b61025f3382610a76565b1561029f576040517f08c379a000000000000000000000000000000000000000000000000000000000815260040161029690611149565b60405180910390fd5b600160025f3373ffffffffffffffffffffffffffffffffffffffff1673ffffffffffffffffffffffffffffffffffffffff1681526020019081526020015f205f8381526020019081526020015f205f6101000a81548160ff0219169083151502179055506003818154811061031757610316611167565b5b905f5260205f2090600302016001015f815480929190610336906111c1565b919050555060015f3373ffffffffffffffffffffffffffffffffffffffff1673ffffffffffffffffffffffffffffffffffffffff1681526020019081526020015f206001015f81548092919061038b906111c1565b91905055503373ffffffffffffffffffffffffffffffffffffffff167f4d99b957a2bc29a30ebd96a7be8e68fe50a3c701db28a91436490b7d53870ca4826040516103d69190610e65565b60405180910390a250565b600381815481106103f0575f80fd5b905f5260205f2090600302015f91509050805f01805461040f90611235565b80601f016020809104026020016040519081016040528092919081815260200182805461043b90611235565b80156104865780601f1061045d57610100808354040283529160200191610486565b820191905f5260205f20905b81548152906001019060200180831161046957829003601f168201915b505050505090806001015490806002015f9054906101000a900460ff16905083565b6104b1816109d0565b6104f0576040517f08c379a00000000000000000000000000000000000000000000000000000000081526004016104e7906112af565b60405180910390fd5b60015f8273ffffffffffffffffffffffffffffffffffffffff1673ffffffffffffffffffffffffffffffffffffffff1681526020019081526020015f205f8082015f9055600182015f9055505061054681610ad8565b60045f815480929190610558906112cd565b91905055508073ffffffffffffffffffffffffffffffffffffffff167f6e76fb4c77256006d9c38ec7d82b45a8c8f3c27b1d6766fffc42dfb8de68449260405160405180910390a250565b600381815481106105b7576105b6611167565b5b905f5260205f2090600302016002015f9054906101000a900460ff1615610613576040517f08c379a000000000000000000000000000000000000000000000000000000000815260040161060a9061133e565b60405180910390fd5b5f60045460646003848154811061062d5761062c611167565b5b905f5260205f20906003020160010154610647919061135c565b61065191906113ca565b905060328111610696576040517f08c379a000000000000000000000000000000000000000000000000000000000815260040161068d9061146a565b60405180910390fd5b6001600383815481106106ac576106ab611167565b5b905f5260205f2090600302016002015f6101000a81548160ff0219169083151502179055507f712ae1383f79ac853f8d882153778e0260ef8f03b504e2866e0593e04d2b291f826040516107009190610e65565b60405180910390a15050565b60045481565b600360405180606001604052808381526020015f81526020015f1515815250908060018154018082558091505060019003905f5260205f2090600302015f909190919091505f820151815f01908161076a9190611625565b50602082015181600101556040820151816002015f6101000a81548160ff02191690831515021790555050507fe8992a719ba38096a6af646873add24c8172489ca954def1b69b5565eb85c1bf816040516107c591906116f4565b60405180910390a150565b5f81815481106107de575f80fd5b905f5260205f20015f915054906101000a900473ffffffffffffffffffffffffffffffffffffffff1681565b6002602052815f5260405f20602052805f5260405f205f915091509054906101000a900460ff1681565b6001602052805f5260405f205f91509050805f0154908060010154905082565b61085d816109d0565b1561089d576040517f08c379a00000000000000000000000000000000000000000000000000000000081526004016108949061175e565b60405180910390fd5b5f60405180604001604052804281526020015f81525090505f82908060018154018082558091505060019003905f5260205f20015f9091909190916101000a81548173ffffffffffffffffffffffffffffffffffffffff021916908373ffffffffffffffffffffffffffffffffffffffff1602179055508060015f8473ffffffffffffffffffffffffffffffffffffffff1673ffffffffffffffffffffffffffffffffffffffff1681526020019081526020015f205f820151815f01556020820151816001015590505060045f815480929190610979906111c1565b91905055508173ffffffffffffffffffffffffffffffffffffffff167fede8eed4383e9241982619b94dd83e488b274cced0fd07b8c0092a393defd52f426040516109c49190610e65565b60405180910390a25050565b5f805f90505b5f80549050811015610a6c578273ffffffffffffffffffffffffffffffffffffffff165f8281548110610a0c57610a0b611167565b5b905f5260205f20015f9054906101000a900473ffffffffffffffffffffffffffffffffffffffff1673ffffffffffffffffffffffffffffffffffffffff1603610a59576001915050610a71565b8080610a64906111c1565b9150506109d6565b505f90505b919050565b5f60025f8473ffffffffffffffffffffffffffffffffffffffff1673ffffffffffffffffffffffffffffffffffffffff1681526020019081526020015f205f8381526020019081526020015f205f9054906101000a900460ff16905092915050565b5f5b5f80549050811015610c7e578173ffffffffffffffffffffffffffffffffffffffff165f8281548110610b1057610b0f611167565b5b905f5260205f20015f9054906101000a900473ffffffffffffffffffffffffffffffffffffffff1673ffffffffffffffffffffffffffffffffffffffff1603610c6b575f8190505b60015f80549050610b69919061177c565b811015610c22575f600182610b7e91906117af565b81548110610b8f57610b8e611167565b5b905f5260205f20015f9054906101000a900473ffffffffffffffffffffffffffffffffffffffff165f8281548110610bca57610bc9611167565b5b905f5260205f20015f6101000a81548173ffffffffffffffffffffffffffffffffffffffff021916908373ffffffffffffffffffffffffffffffffffffffff1602179055508080610c1a906111c1565b915050610b58565b505f805480610c3457610c336117e2565b5b600190038181905f5260205f20015f6101000a81549073ffffffffffffffffffffffffffffffffffffffff02191690559055610c7e565b8080610c76906111c1565b915050610ada565b5050565b5f604051905090565b5f80fd5b5f80fd5b5f819050919050565b610ca581610c93565b8114610caf575f80fd5b50565b5f81359050610cc081610c9c565b92915050565b5f60208284031215610cdb57610cda610c8b565b5b5f610ce884828501610cb2565b91505092915050565b5f81519050919050565b5f82825260208201905092915050565b5f5b83811015610d28578082015181840152602081019050610d0d565b5f8484015250505050565b5f601f19601f8301169050919050565b5f610d4d82610cf1565b610d578185610cfb565b9350610d67818560208601610d0b565b610d7081610d33565b840191505092915050565b610d8481610c93565b82525050565b5f8115159050919050565b610d9e81610d8a565b82525050565b5f6060820190508181035f830152610dbc8186610d43565b9050610dcb6020830185610d7b565b610dd86040830184610d95565b949350505050565b5f73ffffffffffffffffffffffffffffffffffffffff82169050919050565b5f610e0982610de0565b9050919050565b610e1981610dff565b8114610e23575f80fd5b50565b5f81359050610e3481610e10565b92915050565b5f60208284031215610e4f57610e4e610c8b565b5b5f610e5c84828501610e26565b91505092915050565b5f602082019050610e785f830184610d7b565b92915050565b5f80fd5b5f80fd5b7f4e487b71000000000000000000000000000000000000000000000000000000005f52604160045260245ffd5b610ebc82610d33565b810181811067ffffffffffffffff82111715610edb57610eda610e86565b5b80604052505050565b5f610eed610c82565b9050610ef98282610eb3565b919050565b5f67ffffffffffffffff821115610f1857610f17610e86565b5b610f2182610d33565b9050602081019050919050565b828183375f83830152505050565b5f610f4e610f4984610efe565b610ee4565b905082815260208101848484011115610f6a57610f69610e82565b5b610f75848285610f2e565b509392505050565b5f82601f830112610f9157610f90610e7e565b5b8135610fa1848260208601610f3c565b91505092915050565b5f60208284031215610fbf57610fbe610c8b565b5b5f82013567ffffffffffffffff811115610fdc57610fdb610c8f565b5b610fe884828501610f7d565b91505092915050565b610ffa81610dff565b82525050565b5f6020820190506110135f830184610ff1565b92915050565b5f806040838503121561102f5761102e610c8b565b5b5f61103c85828601610e26565b925050602061104d85828601610cb2565b9150509250929050565b5f60208201905061106a5f830184610d95565b92915050565b5f6040820190506110835f830185610d7b565b6110906020830184610d7b565b9392505050565b7f596f7520617265206e6f742061206d656d6265720000000000000000000000005f82015250565b5f6110cb601483610cfb565b91506110d682611097565b602082019050919050565b5f6020820190508181035f8301526110f8816110bf565b9050919050565b7f416c726561647920766f746564000000000000000000000000000000000000005f82015250565b5f611133600d83610cfb565b915061113e826110ff565b602082019050919050565b5f6020820190508181035f83015261116081611127565b9050919050565b7f4e487b71000000000000000000000000000000000000000000000000000000005f52603260045260245ffd5b7f4e487b71000000000000000000000000000000000000000000000000000000005f52601160045260245ffd5b5f6111cb82610c93565b91507fffffffffffffffffffffffffffffffffffffffffffffffffffffffffffffffff82036111fd576111fc611194565b5b600182019050919050565b7f4e487b71000000000000000000000000000000000000000000000000000000005f52602260045260245ffd5b5f600282049050600182168061124c57607f821691505b60208210810361125f5761125e611208565b5b50919050565b7f4d656d62657220646f6573206e6f7420657869737400000000000000000000005f82015250565b5f611299601583610cfb565b91506112a482611265565b602082019050919050565b5f6020820190508181035f8301526112c68161128d565b9050919050565b5f6112d782610c93565b91505f82036112e9576112e8611194565b5b600182039050919050565b7f50726f706f73616c20616c7265616479206578656375746564000000000000005f82015250565b5f611328601983610cfb565b9150611333826112f4565b602082019050919050565b5f6020820190508181035f8301526113558161131c565b9050919050565b5f61136682610c93565b915061137183610c93565b925082820261137f81610c93565b9150828204841483151761139657611395611194565b5b5092915050565b7f4e487b71000000000000000000000000000000000000000000000000000000005f52601260045260245ffd5b5f6113d482610c93565b91506113df83610c93565b9250826113ef576113ee61139d565b5b828204905092915050565b7f496e73756666696369656e7420737570706f727420666f7220657865637574695f8201527f6f6e000000000000000000000000000000000000000000000000000000000000602082015250565b5f611454602283610cfb565b915061145f826113fa565b604082019050919050565b5f6020820190508181035f83015261148181611448565b9050919050565b5f819050815f5260205f209050919050565b5f6020601f8301049050919050565b5f82821b905092915050565b5f600883026114e47fffffffffffffffffffffffffffffffffffffffffffffffffffffffffffffffff826114a9565b6114ee86836114a9565b95508019841693508086168417925050509392505050565b5f819050919050565b5f61152961152461151f84610c93565b611506565b610c93565b9050919050565b5f819050919050565b6115428361150f565b61155661154e82611530565b8484546114b5565b825550505050565b5f90565b61156a61155e565b611575818484611539565b505050565b5b818110156115985761158d5f82611562565b60018101905061157b565b5050565b601f8211156115dd576115ae81611488565b6115b78461149a565b810160208510156115c6578190505b6115da6115d28561149a565b83018261157a565b50505b505050565b5f82821c905092915050565b5f6115fd5f19846008026115e2565b1980831691505092915050565b5f61161583836115ee565b9150826002028217905092915050565b61162e82610cf1565b67ffffffffffffffff81111561164757611646610e86565b5b6116518254611235565b61165c82828561159c565b5f60209050601f83116001811461168d575f841561167b578287015190505b611685858261160a565b8655506116ec565b601f19841661169b86611488565b5f5b828110156116c25784890151825560018201915060208501945060208101905061169d565b868310156116df57848901516116db601f8916826115ee565b8355505b6001600288020188555050505b505050505050565b5f6020820190508181035f83015261170c8184610d43565b905092915050565b7f4d656d62657220616c72656164792065786973747300000000000000000000005f82015250565b5f611748601583610cfb565b915061175382611714565b602082019050919050565b5f6020820190508181035f8301526117758161173c565b9050919050565b5f61178682610c93565b915061179183610c93565b92508282039050818111156117a9576117a8611194565b5b92915050565b5f6117b982610c93565b91506117c483610c93565b92508282019050808211156117dc576117db611194565b5b92915050565b7f4e487b71000000000000000000000000000000000000000000000000000000005f52603160045260245ffdfea26469706673582212204c82055b0d34082d72a2b2e4713325f37972bf872df1074e0a197e7fbabeb69564736f6c63430008150033",
  "immutableReferences": {},
  "source": " // SPDX-License-Identifier: MIT\r\npragma solidity ^0.8.20;\r\n\r\nimport \"@openzeppelin/contracts/token/ERC721/extensions/ERC721Enumerable.sol\";\r\n\r\ncontract DAO {\r\n    // Proposal struct\r\n    struct Proposal {\r\n        string description;\r\n        uint256 voteCount;\r\n        bool executed;\r\n    }\r\n\r\n    // Member struct\r\n    struct Member {\r\n        uint256 startTime;\r\n        uint256 tokenBalance;\r\n    }\r\n\r\n    // State variables\r\n    address[] public members;\r\n    mapping(address => Member) public memberInfo;\r\n    mapping(address => mapping(uint256 => bool)) public votes;\r\n    Proposal[] public proposals;\r\n    uint256 public totalSupply;\r\n\r\n    // Events\r\n    event MemberAdded(address indexed member, uint256 startTime);\r\n    event MemberRemoved(address indexed member);\r\n    event ProposalCreated(string description);\r\n    event Voted(address indexed member, uint256 proposalIndex);\r\n    event ProposalExecuted(uint256 proposalIndex);\r\n\r\n    // Functions\r\n\r\n    function addMember(address _newMember) external {\r\n        require(!isMember(_newMember), \"Member already exists\");\r\n        \r\n        Member memory newMember = Member({\r\n            startTime: block.timestamp,\r\n            tokenBalance: 0\r\n        });\r\n        \r\n        members.push(_newMember);\r\n        memberInfo[_newMember] = newMember;\r\n        totalSupply++;\r\n\r\n        emit MemberAdded(_newMember, block.timestamp);\r\n    }\r\n\r\n    function removeMember(address _member) external {\r\n        require(isMember(_member), \"Member does not exist\");\r\n\r\n        delete memberInfo[_member];\r\n        removeFromMembersArray(_member);\r\n        totalSupply--;\r\n\r\n        emit MemberRemoved(_member);\r\n    }\r\n\r\n    function createProposal(string memory _description) external {\r\n        proposals.push(Proposal({\r\n            description: _description,\r\n            voteCount: 0,\r\n            executed: false\r\n        }));\r\n\r\n        emit ProposalCreated(_description);\r\n    }\r\n\r\n    function vote(uint256 _proposalIndex) external {\r\n        require(isMember(msg.sender), \"You are not a member\");\r\n        require(!hasVoted(msg.sender, _proposalIndex), \"Already voted\");\r\n\r\n        votes[msg.sender][_proposalIndex] = true;\r\n        proposals[_proposalIndex].voteCount++;\r\n        memberInfo[msg.sender].tokenBalance++;\r\n\r\n        emit Voted(msg.sender, _proposalIndex);\r\n    }\r\n\r\n    function executeProposal(uint256 _proposalIndex) external {\r\n        require(!proposals[_proposalIndex].executed, \"Proposal already executed\");\r\n\r\n        uint256 votePercentage = (proposals[_proposalIndex].voteCount * 100) / totalSupply;\r\n\r\n        require(votePercentage > 50, \"Insufficient support for execution\");\r\n\r\n        proposals[_proposalIndex].executed = true;\r\n\r\n        emit ProposalExecuted(_proposalIndex);\r\n    }\r\n\r\n    // Helper functions\r\n\r\n    function isMember(address _member) internal view returns (bool) {\r\n        for (uint256 i = 0; i < members.length; i++) {\r\n            if (members[i] == _member) {\r\n                return true;\r\n            }\r\n        }\r\n        return false;\r\n    }\r\n\r\n    function hasVoted(address _member, uint256 _proposalIndex) internal view returns (bool) {\r\n        return votes[_member][_proposalIndex];\r\n    }\r\n\r\n    function removeFromMembersArray(address _member) internal {\r\n        for (uint256 i = 0; i < members.length; i++) {\r\n            if (members[i] == _member) {\r\n                for (uint256 j = i; j < members.length - 1; j++) {\r\n                    members[j] = members[j + 1];\r\n                }\r\n                members.pop();\r\n                break;\r\n            }\r\n        }\r\n    }\r\n}",
  "sourcePath": "C:\\Users\\Jansatov\\Desktop\\bcass3\\contracts\\SimpleDAO.sol",
  "compiler": {
    "name": "solc",
    "version": "0.8.21+commit.d9974bed.Emscripten.clang"
  },
  "schemaVersion": "3.4.16",
  "updatedAt": "2024-02-22T08:27:48.573Z",
  "devdoc": {
    "kind": "dev",
    "methods": {},
    "version": 1
  },
  "userdoc": {
    "kind": "user",
    "methods": {},
    "version": 1
  }
}